:020000040800F2
:1000000068120020AD010008C50F0008950E000819
:10001000C10F000873030008251600080000000047
:10002000000000000000000000000000191500089A
:10003000C903000800000000C90F00085715000898
:10004000C7010008C7010008C7010008C701000870
:10005000C7010008C7010008C7010008C701000860
:10006000C7010008C7010008C7010008C701000850
:10007000C7010008C7010008C7010008C701000840
:10008000C7010008C7010008C70100080000000000
:10009000000000000000000000000000C701000890
:1000A000C7010008C7010008C7010008C701000810
:1000B000C7010008C7010008C7010008C701000800
:1000C000C7010008C7010008C7010008C7010008F0
:1000D000C7010008C7010008C701000800000000B0
:1000E000C7010008C7010008C701000800000000A0
:1000F000000000000000000000000000C701000830
:1001000000000000C7010008C7010008C70100087F
:1001100000000000000000000000000000000000DF
:10012000C7010008C7010008C7010008C70100088F
:10013000C7010008000000000000000000000000EF
:10014000000000000000000000000000C7010008DF
:10015000C7010008C7010008C7010008C70100085F
:10016000C7010008C70100080000000000000000EF
:10017000000000000000000000000000000000007F
:1001800000000000C701000800000000000000009F
:10019000C7010008C7010008DFF80CD000F0ACF878
:1001A000004800470D3400086812002006488047C8
:1001B00006480047FEE7FEE7FEE7FEE7FEE7FEE74C
:1001C000FEE7FEE7FEE7FEE71116000899010008CA
:1001D0002DE9F05F0546002092469B46884606467C
:1001E000814640241BE0284641464746224600F00F
:1001F00073F853465A46C01A914110D31146184617
:10020000224600F05AF82D1A67EB01084F462246A5
:100210000120002100F051F817EB00094E41201E8B
:10022000A4F10104DFDC484631462A464346BDE8D6
:10023000F09F40EA01039B0703D009E008C9121FA1
:1002400008C0042AFAD203E011F8013B00F8013B90
:10025000521EF9D27047D2B201E000F8012B491EBC
:10026000FBD270470022F6E710B513460A46044653
:100270001946FFF7F0FF204610BD30B504460020B8
:10028000034600E05B1C934203D2E05CCD5C401B64
:10029000F8D030BD00F0004230F000400AD0C10D6F
:1002A00001F56071C0F3160042EA0151C20840072F
:1002B00011437047002001467047202A04DB203A92
:1002C00000FA02F1002070479140C2F1200320FAA9
:1002D00003F3194390407047202A04DB203A21FAA7
:1002E00002F00021704721FA02F3D040C2F120024F
:1002F0009140084319467047064C074D06E0E068F8
:1003000040F0010394E8070098471034AC42F6D35C
:10031000FFF746FF603B0008803B000870B58C1873
:1003200010F8015B15F0070301D110F8013B2A1109
:1003300006D110F8012B03E010F8016B01F8016BF6
:100340005B1EF9D12B0705D40023521E0DD401F8F2
:10035000013BFAE710F8013BCB1A921C03E013F8BB
:10036000015B01F8015B521EF9D5A142D8D30020F0
:1003700070BD00BFFEE700000FB438B505A80090BF
:100380004FF400710E48009B049A00F0CBFE044627
:10039000B4F5007F01D94FF400740A48006820B119
:1003A00021460748074A12689047E2B204490020F4
:1003B00001F0B3F80020009038BC5DF814FB000099
:1003C000BC07002000070020704730B502460A290C
:1003D0000AD10A241368B3FBF4F504FB1530136843
:1003E000B3FBF4F3136005E0137803F00F00136818
:1003F0001B09136030BD72B600BFFEE770B504463E
:1004000000F0FAF806462546681C10B1044800784A
:10041000054400BF00F0F0F8801BA842FAD370BD7D
:1004200008000020F8B502460B46002500240020F5
:100430000021C7E0012606FA01F51E6806EA050458
:10044000AC4274D11E7906F00306012E04D01E7949
:1004500006F00306022E13D190684F000326BE401B
:10046000B0434F00DE68BE403043906050680126C4
:100470008E40B0431E79C6F300168E403043506064
:100480001E7906F00306032E09D0D0684F0003261C
:10049000BE40B0434F009E68BE403043D0601E79DE
:1004A00006F00306022E13D1CF0802F1200656F8FB
:1004B00027004E07F70E0F26BE40B0434F07FF0E32
:1004C0001E69BE403043CF0802F1200646F82700DF
:1004D00010684F000326BE40B0431E7906F00306A5
:1004E0004F00BE40304310605E6806F44036002E78
:1004F00067D000BF00260096344E366846F480462A
:10050000324F3E603E46366806F48046009600BF95
:1005100000BF2F4E8F0856F827008E07370F0F2683
:10052000BE40B0432B4EB24202D1002615E048E057
:10053000294EB24201D101260FE0284EB24201D12C
:1005400002260AE0264EB24201D1032605E0254EDE
:10055000B24201D1042600E007268F073F0FBE40BC
:1005600030431B4E8F0846F827001F4E3068A043CB
:100570005E6806F4801606B120431B4E3060361DBF
:100580003068A0435E6806F4001606B12043164E9C
:10059000361D3060144E361F3068A0435E6806F486
:1005A000003606B12043104E361F3060361F3068CB
:1005B000A0435E6806F4803606B120430A4E083E2A
:1005C0003060491C1029FFF435AFF8BD44380240B3
:1005D00008380140000002400004024000080240C8
:1005E000000C024000100240083C01400AB1816149
:1005F00001E00B0483617047014800687047000008
:1006000000000020034800680349097808440149B4
:1006100008607047000000200800002010B50D4859
:10062000006840F400700B4908600846006840F418
:10063000806008600846006840F48070086003200D
:1006400000F092F80F2000F007F800F02BF80020DF
:1006500010BD0000003C024070B504460E48007812
:100660004FF47A71B1FBF0F00C490968B1FBF0F579
:10067000284600F0F5FB08B1012070BD102C07D210
:1006800000222146501E00F031F80548046001E0C8
:100690000120F2E70020F0E7080000200C00002015
:1006A0000400002008B500BF002000900E4800683C
:1006B00040F480400C4908600846006800F480401F
:1006C000009000BF00BF00BF00200090081F00681E
:1006D00040F08050091F08600846006800F0805014
:1006E000009000BF00BF08BD443802402DE9F05F14
:1006F00080460D461646002701F030F80746394679
:100700002A46334601F00700C0F1070ABAF1040F88
:1007100002D94FF0040A01E0C0F1070AD14600F106
:10072000040ABAF1070F02D24FF0000A01E0A0F16B
:10073000030AD4464FF0010A0AFA09FAAAF1010A9B
:100740000AEA020A0AFA0CFA4FF0010B0BFA0CFB48
:10075000ABF1010B0BEA030B4AEA0B0421464046BE
:1007600001F004F8BDE8F09F00BF00F00702064B5F
:1007700019684FF6FF031940044B0B4343EA02216B
:10078000014B196000BF70470CED00E00000FA0556
:1007900070B504460D460CB9012070BD584800687C
:1007A00000F00700A84209D255490D7008460068BC
:1007B00000F00700A84201D00120EEE7207800F009
:1007C000020002281DD1207800F00400042805D181
:1007D0004C48006840F4E0504A490860207800F036
:1007E0000800082805D14748006840F460404549A2
:1007F00008604448006820F0F000A16808434149BF
:100800000860207800F00100A8B36068012807D1D3
:100810003C4808380068C0F34040B8B90120BCE744
:100820006068022802D06068032807D1354808387C
:100830000068C0F3406048B90120AEE7314808388D
:100840000068C0F3400008B90120A6E72D48006801
:1008500020F00300616808432A490860FFF7CCFED6
:10086000064609E0FFF7C8FE801B41F28831884246
:1008700002D9032091E707E02248006800F00C004D
:100880006168B0EB810FEDD11D48006800F00700F2
:10089000A84209D91A490D700846006800F00700FF
:1008A000A84201D0012078E7207800F00400042855
:1008B00007D11448006820F4E050E168084311496A
:1008C0000860207800F00800082808D10D4800686A
:1008D00020F46040216940EAC1000A49086000F044
:1008E00019F808490968C1F30311074A515CC84067
:1008F0000649086006480068FFF7AEFE00204CE796
:10090000003C024008380240083700080C00002074
:10091000040000202DE9F047002400250026A14610
:100920002548006800F00C0020B1042805D00828F4
:100930003AD105E0DFF8849039E0DFF8849036E0C2
:100940001D48001F006800F03F041B48001F00689E
:1009500000F4800078B11A481749091F0968C1F3EB
:100960008811A0FB01700146224600233846FFF79C
:100970002FFC05460EE011480F49091F0968C1F315
:100980008811A0FB01700146224600233846FFF77C
:100990001FFC05460848001F0068C0F30140401CCA
:1009A0004600B5FBF6F902E0DFF8109000BF00BF8B
:1009B0004846BDE8F0870000083802400024F400F3
:1009C00040787D01F8B504460CB90120F8BD2078C7
:1009D00000F00100002874D0F948006800F00C0015
:1009E00004280DD0F648006800F00C00082813D148
:1009F000F348001F006800F48000B0F5800F0BD1B1
:100A0000EF4808380068C0F34040002859D06068BB
:100A1000002856D10120D9E700BF6068B0F5803FBB
:100A200008D1E7480838006840F48030E4490839C4
:100A300008601EE06068B0F5A02F0DD1E0480838CE
:100A4000006840F48020DE490839086008460068E4
:100A500040F4803008600CE0D9480838006820F481
:100A60008030D749083908600846006820F48020A3
:100A7000086000BF606890B1FFF7BEFD054606E064
:100A8000FFF7BAFD401B642801D903209EE7CC483C
:100A900008380068C0F340400028F1D011E0FFF7AB
:100AA000ABFD054606E0FFF7A7FD401B642801D912
:100AB00003208BE7C24808380068C0F34040002894
:100AC000F1D1207800F0020002285FD1BC48006814
:100AD00000F00C0058B1BA48006800F00C0008287B
:100AE0001CD1B748001F006800F48000B0B9B448BA
:100AF00008380068C0F3400020B1E068012801D048
:100B0000012063E7AE480838006820F0F80021694A
:100B100040EAC100AA490839086037E0E06800B33C
:100B20000120A8490860FFF767FD054606E0FFF7CA
:100B300063FD401B022801D9032047E7A04808387D
:100B40000068C0F340000028F1D09D4808380068D4
:100B500020F0F800216940EAC1009949083908608D
:100B600014E0002097490860FFF746FD054606E0BF
:100B7000FFF742FD401B022801D9032026E79048D9
:100B800008380068C0F340000028F1D1207800F058
:100B9000080008282CD16069A8B101208A490860A2
:100BA000FFF72AFD054606E0FFF726FD401B022859
:100BB00001D903200AE782486C300068C0F3400086
:100BC0000028F1D014E000207F490860FFF714FDF1
:100BD000054606E0FFF710FD401B022801D903205F
:100BE000F4E677486C300068C0F340000028F1D18B
:100BF000207800F00400042870D1002770483830B5
:100C0000006800F0805090B900BF002000906C4850
:100C10003830006840F08050694938310860084633
:100C2000006800F08050009000BF00BF01276748B7
:100C3000006800F48070B0B96448006840F48070C7
:100C400062490860FFF7D8FC054606E0FFF7D4FCD0
:100C5000401B022801D90320B8E65C48006800F474
:100C600080700028F2D000BFA068012808D1544845
:100C70006830006840F001005149683108601DE0AB
:100C8000A06805280DD14E486830006840F0040087
:100C90004B49683108600846006840F00100086070
:100CA0000CE047486830006820F001004449683192
:100CB00008600846006820F00400086000BFA068D3
:100CC000A8B1FFF799FC054609E0FFF795FC401B2A
:100CD00041F28831884202D9032077E626E038487D
:100CE00068300068C0F340000028EED013E0FFF742
:100CF00083FC054608E0FFF77FFC401B41F288318A
:100D0000884201D9032061E62D4868300068C0F3AD
:100D100040000028EFD1012F07D129483830006862
:100D200020F0805026493831086000BFA0690028B3
:100D300045D02348006800F00C0008285DD0A06969
:100D4000022845D100201F490866FFF755FC0546DB
:100D500006E0FFF751FC401B022801D9032035E6CD
:100D6000174808380068C0F340600028F1D1D4E982
:100D700007010843616A40EA81110122A06AC2EBBF
:100D8000500041EA00412C20005D41EA00600C491E
:100D9000091F086001200B490866FFF72DFC054676
:100DA00006E0FFF729FC401B022801D903200DE6CD
:100DB000034808380068C0F340600028F1D049E0DB
:100DC0000838024000004742800E47420070004051
:100DD000002021490866FFF70FFC054606E0FFF7F3
:100DE0000BFC401B022801D90320EFE51B480068DB
:100DF000C0F340600028F2D12CE0A069012800D1A6
:100E0000E4E51648001D0668A069012820D006F414
:100E10008001E06981421BD106F03F01206A8142D6
:100E200016D147F6C0703040616AB0EB811F0FD118
:100E300006F440310122A06AC2EB5000B1EB004F32
:100E400006D106F070612C20005DB1EB006F01D07F
:100E50000120BBE50020B9E5000047420038024010
:100E600070B504462546681EB0F1807F01D301208D
:100E70000FE0681E4FF0E02148610F214FF0FF3076
:100E800000F074FC00204FF0E02188610720086129
:100E9000002070BD00BFFEE700B587B0142102A896
:100EA000FFF7E0F900BF002001901F48006840F004
:100EB00004001D4908600846006800F00400019025
:100EC00000BF00BF00BF002001900846006840F04E
:100ED000800008600846006800F08000019000BFB4
:100EE00000BF00BF002001900846006840F00100EC
:100EF00008600846006800F00100019000BF00BFD4
:100F0000012251030948FFF771FB4FF40050029092
:100F10000120039000200490059002A90348FFF7E8
:100F200081FA07B000BD00003038024000080240DE
:100F300010B503A0FFF720FA074801F057FC10BDD9
:100F40000D0A414920696E697469616C697A61743E
:100F5000696F6E0D0A000000D406002038B54FF00E
:100F6000FF340E48006880B10D4801F04FFB044685
:100F700014B901F05BFF04461CB90A4802F06AFA92
:100F8000044614B96420FFF739FA34B10648006802
:100F9000009006A1009801F03BFD38BDD806002066
:100FA000CC060020D0060020083A000850726F637B
:100FB00065737320686173204641494C45440000C5
:100FC00000BFFEE700BFFEE7704700002DE9FF4FBE
:100FD00086B004460F469B46DDE91495DDF84C804B
:100FE00005F0400008B1484800E04848009005F08E
:100FF000100008B125F0010505F0010008B130200E
:1010000000E0202005904FF0000A05F0020098B1A2
:101010000898002805DA4FF02D0A089840420890F9
:101020000AE005F0040010B14FF02B0A04E005F0CF
:10103000080008B14FF0200A0026089828B930228D
:101040003046761C01A90A540DE009E0594608A86B
:10105000FFF7BBF900990A5C3046761C01A90A54D7
:1010600008980028F2D14E4500DDB146A8EB0908EA
:1010700005F0110050B904E0BC4201D820202070D6
:10108000641CB8F10000A8F10108F5DCBAF1000F0A
:1010900006D0BC4203D884F800A0A8F10108641C63
:1010A00005F0100050B904E0BC4201D8059820704A
:1010B000641CB8F10000A8F10108F5DC04E0BC42B2
:1010C00001D830202070641C4846A9F10109B042C3
:1010D000F5DC05E0BC4202D801A8805D2070641CEC
:1010E000301EA6F10106F5DC04E0BC4201D8202048
:1010F0002070641CB8F10000A8F10108F5DC20465E
:101100000AB0BDE8F08F0000283A0008173A00083E
:1011100001460A4600E0521C10780028FBD1501A04
:10112000704700002DE9FF4F89B0804644460A9879
:101130004044461E464504D24FF0FF36A6EB080059
:101140000A906FE10B980078252806D0B44202D8A7
:101150000B9800782070641C61E1002526E00B9854
:10116000401C0B900B9800782D2802D145F01005FB
:101170001CE00B9800782B2802D145F0040515E0FF
:101180000B980078202802D145F008050EE00B9856
:101190000078232802D145F0200507E00B9800785D
:1011A000302802D145F0010500E000E0D7E700BF9C
:1011B0004FF0FF370B98007830380A2804D20BA87C
:1011C00000F0B6F907460EE00B9800782A280AD1FD
:1011D0000B98401C0B900C9880C80C90002F02DAE2
:1011E0007F4245F010054FF0FF390B9800782E280C
:1011F0001CD10B98401C0B900B98007830380A28B3
:1012000004D20BA800F094F981460AE00B9800780C
:101210002A2806D10B98401C0B900C9850F8049B80
:101220000C90B9F1000F01DA4FF000090020049092
:101230000B980078682803D00B9800786C2805D1AB
:101240000B98007804900B98401C0B900A20059096
:101250000B9800786F2875D00CDC632813D004DC61
:10126000252870D058286FD18DE064286DD069286A
:10127000F9D18FE070286AD0732825D0752878D0EE
:101280007828F0D182E005F0100040B904E0B442C3
:1012900001D820202070641C781E071EF7DC0C98F3
:1012A00010F8041B0C90C8B20790B44201D80798FC
:1012B0002070641C04E0B44201D820202070641C1B
:1012C000781E071EF7DCAAE00C98006806900C98C0
:1012D000001D0C90069808B95AA006900698FFF7D2
:1012E00017FF8346B9F1000F02DDCB4500DDCB4689
:1012F00005F0100048B904E0B44201D82020207065
:10130000641C38467F1E5845F6DC002008900BE030
:10131000B44202D8069800782070641C0698401CDD
:1013200006900898401C089008985845F0DB04E0A7
:10133000B44201D820202070641C38467F1E5845D6
:10134000F6DC6CE01CE015E028E022E0FFE7781C0A
:1013500010B9082745F00105CDE9007902950C98F0
:1013600004C8102331460C902046FFF72FFE044698
:1013700055E012E0B44201D825202070641C4EE0F4
:10138000082005901DE045F0400500BF10200590A5
:1013900017E000BF45F0020500BF12E0B44201D8DB
:1013A00025202070641C0B98007830B1B44202D81C
:1013B0000B9800782070641C02E00B98401E0B9084
:1013C0002DE000BF04986C2807D10C9850F804ABAE
:1013D0000C9005F00200B8B116E0049868280BD113
:1013E0000C9830F8041B1FFA81FA0C9005F00200EB
:1013F00050B10FFA8AFA07E00C9850F804AB0C9041
:1014000005F0020000B100BFCDE900790295524617
:1014100031462046059BFFF7D9FD044600BF0B98D7
:10142000401C0B900B98007800287FF48BAEB442E0
:1014300001D8207001E000203070A4EB08000DB04E
:10144000BDE8F08F284E554C4C2900002DE9F041A5
:1014500004460D46164600BF0D48007808B900F056
:10146000E3F800BFEFF311800746202080F31188D6
:1014700000BF00BF32462946204600F00BF88046E8
:10148000F8B280F3118800BF00BF4046BDE8F0818C
:10149000BC0900202DE9F047074688461646C2469B
:1014A00007EB47011B4800EBC109D9F8140020B134
:1014B000012811D0022826D11EE0484600F0CEF8BF
:1014C0000546B54201D2002405E034463246514675
:1014D000484600F00AF918E0484600F0BFF8054613
:1014E000B54201D2284600E0304604462246514625
:1014F000484600F0FAF808E032465146484600F007
:10150000BBF8044601E0002400BF00BF2046BDE850
:10151000F0870000D4090020704770B504460D46DE
:101520001646324629462046FFF790FFC0B270BDEE
:101530000146002009E00B685A1C0A601A7800EB8B
:10154000800302EB4302A2F130000A681278303ABD
:101550000A2AF0D3704710B5FFF754F810BD000009
:1015600000B593B0302107A8FEF77CFE142102A835
:10157000FEF778FE00BF002001902348006840F08D
:101580008050214908600846006800F080500190B2
:1015900000BF00BF00BF002001901C48006840F45D
:1015A00040401A4908600846006800F44040019035
:1015B00000BF00BF012007900004089002200D909A
:1015C00041050E910C210F91602110910221119182
:1015D0000421129107A8FFF7F5F908B1FEF70BFFF8
:1015E0000F20029002200390002004904FF48050BE
:1015F000059000200690032102A8FFF7C9F808B162
:10160000FEF7F9FE13B000BD403802400070004004
:101610000348006840F4700001490860704700000A
:1016200088ED00E000BFFEE70B4803210161416146
:10163000532101704521417047218170C1704521BE
:10164000017152214171202181715221C1715421B6
:101650000172417270470000BC09002010B50146BC
:101660000A69CB689A4204D88C68641EE41AA018F0
:1016700001E0D41A601E10BD2DE9F04704468946EA
:1016800017464FF0000AE56800BFD4F81080A8455F
:1016900003D9A8EB0500461E04E0A5EB0800401C9A
:1016A000A1680E1AA068401BB04201D9304601E083
:1016B000A068401B0646BE4201D2304600E03846D4
:1016C00006466168481932464946FEF7B2FDB24403
:1016D000B144BF1B3544A068A84200D10025E56095
:1016E000002FD2D15046BDE8F0872DE9F0470446DF
:1016F00089461546E668A068871BAF4208D961682D
:1017000088192A464946FEF794FD7019E06010E0FA
:10171000B8466168881942464946FEF78AFDA5EB3E
:10172000070809EB070142466068FEF782FDC4F82E
:101730000C80BDE8F0874100080218BF04200A0EA3
:1017400018BF40F001004FF07F4232EA010108BFAC
:1017500040F00200012808BF0520704702480068D9
:10176000C0F30220704700000CED00E010B5002827
:1017700004DB0A07130E054A135406E00A07140E89
:10178000034A00F00F031B1FD45410BD00E400E017
:1017900018ED00E09FED4B0A63E000BFD2ED003A88
:1017A00091ED004A92ED013A91ED011A04EE230AFF
:1017B000D2ED021A91ED022AD2ED032AD1ED030AED
:1017C00092ED044A01EE030AD1ED043A91ED053A97
:1017D00092ED071A02EE210A92ED052AD1ED061AC2
:1017E00000EEA20AD2ED062AD1ED070A03EE840A22
:1017F00092ED084AD1ED083A03EE020A92ED093A59
:1018000092ED0A2A01EEA20AD1ED092AD1ED0A1AB7
:1018100000EE810A92ED0B1AD1ED0B0A03EE840A59
:10182000D2ED0C3A91ED0C4A02EE830AD2ED0D2A6C
:1018300091ED0D3A01EE820A92ED0E2AD1ED0F1ACA
:1018400000EE810AD1ED0E0A92ED0F1A40314032BE
:10185000103B04EE230A03EE220A00EE820A01EE98
:10186000810A102B9AD21AE0D1ED000A92ED001AEB
:1018700000EE810AD1ED010A92ED011A00EE810A13
:10188000D1ED020A92ED021A00EE810AD1ED030AAF
:1018900092ED031A103110321B1F00EE810A042B47
:1018A000E2D206E0F1EC010A5B1EB2EC011A00EE96
:1018B000810A002BF6D1D0ED000A30EE800A80EDCF
:1018C000000A70470000000010B510EE104A4FF0FB
:1018D00019406849002200EB44002DED028B88423C
:1018E00057D8DFED650A14F0004F60EE200A14BFF0
:1018F000BEEE001AB6EE001A71EE200AFDEEE00A06
:1019000010EE900A00EE900AF8EEE00A9FED5B1AE6
:1019100000EEC10A9FED5A1A00EEC10ADFED590A26
:101920009FED591A00EE201ADFED580A40EE010A29
:101930009FED571A574B00F0030100EE201A21EEDD
:10194000000A7B4403EB8103D3ED000A524B7B4436
:1019500003EB810393ED001A504B41EE000A7B44E8
:1019600003EB8101801091ED000A70EE800AEABB62
:1019700000EE100AB8EEC01ADFED491A9FED490AD1
:10198000BDEC028B01EE210ABCEEC00A20EE200A5B
:1019900010BD4FF0FF40A0431BD04FF0CE40B0EB46
:1019A000440F82BFB7EE000ABDEC028B10BD3E486B
:1019B000B0EB440F28BF012293D2022000F088FA36
:1019C00014F0004F15D0BDEC028BBDE8104000F0C4
:1019D000BDB914F5000F02BF9FED340ABDEC028BB8
:1019E00010BDBDEC028BBDE8104000E007E000F048
:1019F00099B9BDEC028BBDE8104000F09FB900EB37
:101A0000D07359104FF07E5202EBC15100EE101A04
:101A1000A0EB630002EBC05060EE200A00EE100A5B
:101A200020EE208A18EE100A88B118EE100AB0F1E4
:101A3000FF4F15D018EE100AFFF77DFE042808BFEF
:101A400000F084F9B0EE480ABDEC028B10BD022014
:101A500000F03EFABDEC028BBDE8104000F076B914
:101A6000022000F035FABDEC028BBDE8104000F01A
:101A700065B900000000501E3BAAB8400070313E1E
:101A8000F4FD053712BB2A3D12BB2A3EFFFFFF3E85
:101A9000FFFF7F3F6E210000722100004221000005
:101AA0000000004B00007E4E0000A08500000000FA
:101AB00000B510EE101A2DED028B81B0524A684627
:101AC000B2EB410F2ED94FF0E640B0EB410F94BF7F
:101AD00000204FF0FF3000900098B0EE408A0028C0
:101AE0006ADB10F0010F4BD068EE080A9FED471A31
:101AF0009FED470A00EE810A9FED461A10F0020F93
:101B000000EE801AB7EE000A00EE810A02BF01B0B3
:101B1000BDEC028B00BD00BF01B0B1EE400ABDECD0
:101B2000028B00BD3C4B21F00042934241D911F0A1
:101B3000004FDFED3A0A20EE201ADFED390A19BF17
:101B400031EE601A71EE200A31EE201A71EE600A51
:101B5000BDEEE01A11EE100A9FED321A00F00300FC
:101B600000EEC10A9FED301A009000EEC10A9FED11
:101B70002F1A00EEC10A9FED2E1A00EEC10AABE744
:101B800028EE080A9FED2B1ADFED2B0A10F0020F4A
:101B900040EE410A9FED291A00EE201A61EE000A7C
:101BA000B0EE480A08EE200AB6D101B0BDEC028BB7
:101BB00000BD00F0D3F88FE718EE100A4000B0F136
:101BC0007F4F0DD218EE100AFFF7B5FD042808BFAD
:101BD00000F0BCF8B0EE480A01B0BDEC028B00BDCD
:101BE00009D1012000F074F901B0BDEC028B5DF861
:101BF00004EB00F09BB801B0B0EE480ABDEC028BDC
:101C00005DF804EB00F08EB8B61F927EB93AB2BA16
:101C1000CA9F2A3DDDFFFFBE490E494683F9223F98
:101C20000000004B0000C93F00A0FD390020A23396
:101C30001A61342C336D4C39DA82083CA0AA2ABED2
:101C400010B510EE104A2DED028B4FF07F40B0EE34
:101C5000C08AB0EB440F55D318EE101A2C4A9142AB
:101C600020DD18EE101AB0EB410F1BD318EE101A3E
:101C7000284AF7EE008A914207DD18EE101AB0EB01
:101C8000410F28BFB0EE680A35D238EE080AFFF7D8
:101C90001BFE70EE280AB0EE001A81EE200A38EE24
:101CA000C00A28E018EE101AB1F1665F0FDA18EEDC
:101CB000101AB0EB410F0AD318EE100AFFF73BFDE4
:101CC000042808BF00F042F8B0EE480A13E028EEFE
:101CD000080ADFED110ADFED111A9FED111A40EE2F
:101CE000210A60EE800A30EE010A80EE801AB0EE22
:101CF000480A08EE010A002CB8BFB1EE400ABDEC5C
:101D0000028B10BDBDEC028BBDE8104000F00AB89C
:101D1000549F0C3FB32C1041C6E252BFB2117BBBA3
:101D20001A2A1E4030EE000A70470000DFED020A5A
:101D300080EEA00A70470000000000009FED020A3C
:101D400020EE000A70470000000000709FED020ABC
:101D500020EE000A70470000000000102DE9F0019D
:101D60004FF07F42B2EB410F9FBF4FF0FF31016058
:101D7000BDE8F00170474FF0004242EA0123C1F391
:101D8000C752783A551112F01F0C434CCCF1200683
:101D90007C44C1F3C752A2F178024FEA621204EB0D
:101DA000820254F8254008BFD2E9015612D0556886
:101DB00004FA0CF425FA06F73C43976805FA0CF58B
:101DC00027FA06F8D26807FA0CFCF24045EA080543
:101DD0004CEA0206A4FB034CA5FB0352A6FB0363DB
:101DE0001D449D4234BF012600261319334416B109
:101DF000934202D903E0934201D2012200E0002283
:101E0000624402F1200C9206DC0C42EA443200EEFD
:101E1000102A5B03DFED210AF8EEC01A00EE103A3B
:101E20004FEA9C1C11F0004FB8EE400AC0F800C009
:101E300020EE201A00EE105ADFED190AB8EE400A23
:101E400020EE200A71EE810A70EE800A10EE902AD0
:101E500002F500626FF30B0200EE902A70EEE11AB9
:101E600031EEC11ADFED101A30EE411A9FED0D0A66
:101E700020EE800A01EE210A9FED0C1A00EE810A85
:101E800004BFBDE8F0017047CCF180510160BDE8AE
:101E9000F001B1EE400A7047401D0000000000361E
:101EA0000000802C22AAFD29DB0FC92F0000C92FBA
:101EB00002E008C8121F08C1002AFAD17047704713
:101EC000002001E001C1121F002AFBD17047000071
:101ED00001490860704700000807002010B54169FB
:101EE000044688472069A04200D1002010BD0000B0
:101EF0002DE9F04F002699B00F4605463446B0460E
:101F00004CE0A868C4EBC4038946426802EB830234
:101F10000E92806810AA00EBC40A2C480D9251F86A
:101F2000082F006A120A62F31F200190D1F804B052
:101F30001C2105A8FEF796F9D9F81800006800F0F2
:101F4000BFFB0590D9F81800806806905FEA0A0088
:101F500009D0C0F80080D9F80010416029B1498843
:101F600019B1012102E0404603E00021016001B9FE
:101F700000200790D9F818001C2205A94068099094
:101F80000198CDE90A0B0D98FEF753F91C2210A910
:101F90000E98FEF74EF9761CB6B2641C0DB1288877
:101FA00000E00020A04205D9686818B150F824105C
:101FB0000029A6D11EB1A8684068386001E0C7F8C2
:101FC000008019B03046BDE8F08F00003C3A0008B0
:101FD000F0B50546059C24F0010003EB80069FED5B
:101FE000460AE70856E001C9D3ED002AC0F3031CF6
:101FF00002EB8C0C9CED002A00F00F0C02EB8C0C19
:1020000002EE220ADCED001A93ED012AC0F3072C40
:102010004FEA1C1C02EB8C0C01EE820A9CED001AAC
:10202000D3ED021AC0F3032C02EB8C0CD3ED042A7F
:1020300001EE210ADCED000A93ED031AC0F3074C10
:102040004FEA1C1C02EB8C0C00EE810A9CED002A6E
:10205000C0F3034C02EB8C0CDCED001A02EE220AFA
:1020600093ED052A4FEA107C02EB8C0CC0F3036061
:102070009CED001A01EE820AD3ED061A02EB8000F5
:10208000D0ED000A01EE210A93ED071A20337F1EDE
:1020900000EE810A002FA6D116E000BF11F8010B57
:1020A00093ED001A070902EB870700F00F00D7ED48
:1020B000000A02EB800000EE810AD0ED000A93EDE9
:1020C000011A083300EE810AB342E7D3E0070AD0D1
:1020D00011F8010B93ED001A000902EB8000D0ED1E
:1020E000000A00EE810AD5ED000A084630EE800AAB
:1020F00085ED000AF0BD000000000000F0B50446C8
:10210000059D9FED370AE8084FE040C9D3ED002A4E
:10211000F7B202EB8707401E97ED002AC6F30727A8
:1021200002EB870702EE220AD7ED001A93ED012A8F
:10213000C6F3074702EB8707360E01EE820A97EDDA
:10214000001AD3ED021A02EB8606D3ED042AD6ED6F
:10215000000A01EE210A93ED031A40C9F7B200EE1E
:10216000810A02EB870797ED002AC6F3072702EBE7
:10217000870702EE220AD7ED001A93ED052AC6F36F
:10218000074702EB8707360E01EE820A97ED001A29
:10219000D3ED061A02EB8606D6ED000A01EE210AFF
:1021A00093ED071A203300EE810A0028ADD105F027
:1021B00007000AE011F8015B401E02EB8505B3EC55
:1021C000011AD5ED000A00EE810A0028F2D1D4ED03
:1021D000000A084630EE800A84ED000AF0BD0000D7
:1021E0000000000070B505460C46488869888842A2
:1021F00002D9AAB1002070BD92B100260CE000BF48
:102200006168C6EBC6006A6801EB800102EB8000E2
:102210001C22FEF70EF8761C6088B042F0D801E070
:10222000606868606088688020882880012070BDB0
:1022300030B500B3F9B1F2B15268E2B10F4C136896
:10224000A34203D00260012913D014E00023121D21
:1022500007E000BF52F82350A54204D040F82350B5
:102260005B1C8B42F6D38B4205D152F82300A0426F
:1022700001D1012030BD002030BD0000DECAFAA12E
:1022800070B50D46060014461AD0CCB1104600F0C9
:1022900019FB00B16088A84212D10023042109E093
:1022A000C3EBC302606801EB8202805820B146F89C
:1022B00023005B1CAB42F3D3AB4201D1012070BDC4
:1022C000002070BD0349884201D1012070470020E1
:1022D00070470000DECAFAA12DE9FE4F92468946FA
:1022E000040003D0208E20B1656B03E00020BDE820
:1022F000FE8F0025002060832083207CC043800760
:1023000002D030221121DCE0B9F1000F61D0D5B349
:102310002888C0B3D9F818000026D0F8008056E00D
:10232000A868006800EB0610019052D058B3C6EBC5
:10233000C600029009EB80000121009000F0CCFA69
:10234000DBF81830596888421AD80098DBF80C205E
:102350008069D768D0F80CC0674511D19768D0F86C
:1023600008C067450CD152684068824208D118689D
:1023700000F096F90746584601F034F8874203D238
:10238000182212219DE024E0DBF81800006800F01C
:1023900097F9029920F07E4259F8210020F07E4002
:1023A000824201D01922ECE70098406888B1009879
:1023B0008069006878B14146404500D208468046B1
:1023C000DDE900105A4600F08FF8761C2DB1288800
:1023D00004E01722D5E72122D3E70020B04206D936
:1023E000686820B150F826B0BBF1000F98D1BAF15F
:1023F000000F74D0208E012806D9656B0C3503D0F0
:10240000288808B1002658E0182259E0A86800681A
:1024100000EB061B3BD0BBF1000F38D0C6EBC6006B
:1024200001900AEB80000121009000F055FAD9F8E4
:10243000183059688842E7D80098D9F80C2080698C
:10244000D768D0F80CC06745DED19768D0F808C0CF
:102450006745D9D1526840688242D5D1186800F0EA
:102460001FF90746484600F0BDFF8742CCD3D9F894
:102470001800006800F024F920F07E4201985AF814
:10248000200020F07E40824203D0192218E017225B
:1024900016E0009840680028F9D00098806900682C
:1024A00068B14146404500D2084680464A465846F3
:1024B000009900F019F8761C3DB1288806E0212229
:1024C0001321204600F088FC10E70020B04206D916
:1024D000686820B150F82690B9F1000F96D1A4F8A1
:1024E00018804FF0010002E770B504460E4615460D
:1024F000104600F077FF0146A060B06900684843CD
:10250000E06071686160726810442060A8690268C8
:10251000920007D4D0E90223D21A11448160A9693C
:102520006068C86070BD70B50646002521E0B068DF
:10253000006800EB051488690268920005D581687F
:10254000A268606801F098F808E0D0E90223D21A86
:1025500063681A44826089696068C860D4E90101CF
:10256000084460602168884201D3E068081A6D1C45
:1025700060600EB1308800E00020A84206D9706883
:10258000002803D050F825100029D0D170BD2DE9C6
:10259000F0410646002529E0B1688369096801EB2E
:1025A000051419688900D4E901120DD5986801F065
:1025B00063F8D4E90101084460602168884201D3CE
:1025C000E068081A606010E00A44626021688A428C
:1025D00001D3E2688A1A62608169D1E90237DB1BA4
:1025E0001A448A6080696168C1606D1C0EB13088D0
:1025F00000E00020A84206D97068002803D050F8F7
:1026000025000028C8D1BDE8F081000070B52DED8F
:10261000028B044625681C4890ED000A1B4880ED9B
:10262000000A90ED000ADFED1A0A20EE200ADFED25
:10263000190A80EE201AB0EE418AB0EE480AFFF780
:1026400037FA154880ED000A104890ED000A85ED34
:10265000000A0D4890ED000AF7EE000A30EE200A5D
:1026600080ED000A90ED000ADFED0A0AB4EEE00A00
:10267000F1EE10FA03DD9FED090A80ED000A00205B
:10268000BDEC028B70BD0000EC060020E4060020CB
:10269000DB0F494000003443E80600200000000042
:1026A00059B1C0F3C6125143C91D21F00701C0F34F
:1026B0004150C140C91DC808704700207047000044
:1026C00030B54021C0F34342022A19D03A4A20F0E3
:1026D0007E439C1A4D01934263D028DC374AA3EB1A
:1026E000020493425DD018DC402B5BD0403BB3F535
:1026F000802350D0802B3DD0B3F5806F52D134E091
:10270000C0F3C051C905C0F3C61241EAC21100F0BE
:102710007F02114341F4802144E0A4F54074F93C68
:1027200026D00F2C3AD0AC423CD125493AE0254B7B
:10273000E21A9C4229D00CDC234AA21813D0B2F52D
:10274000F83F1FD0214BD2181AD0B2F5607F29D1A3
:1027500012E0A2F54072F93A10D00F2A18D0AA421E
:1027600020D11B491EE01B491CE01449C91F19E078
:10277000194917E0194915E0194913E0194911E001
:1027800019490FE0184980390CE01549C91D09E0C5
:1027900014490F3106E01149803903E00E490F3129
:1027A00000E0114600F080420A4300F0005111435E
:1027B00000F00060084330BD4004060047040400F8
:1027C0004010040007007E0000F483FF800FFEFF2E
:1027D000401084004010820040080400C000040043
:1027E0004004840040088400C000840038B50446DA
:1027F000002221461C4800F061FB00900098C0B206
:1028000018B11AA1009800F003F9002116480068D9
:1028100000F0D6FB1E49086000211348006800F054
:10282000DFFB1C49086000200AE0C0EBC001184A29
:10283000126802EB81014968174A42F82010401CD7
:102840000128F2DB00200AE0C0EBC001114A126847
:1028500002EB81014968114A42F82010401C01280E
:10286000F2DB002038BD0000D806002061695F73EC
:10287000696E5F636175636C617574655F637265D2
:102880006174655F616E645F696E69740000000069
:10289000DC060020E0060020CC060020D006002048
:1028A00070B514460D46064600F00CF840B170684D
:1028B000C5EBC50110EB810002D04460012070BD62
:1028C000002070BD28B1416819B1408808B10120CD
:1028D000704700207047000010B502002AD0164B48
:1028E0001068B3EBC01F03D0144BB3EBC01F01D172
:1028F000012000E0002008429069406802D01F30AB
:1029000020F01F005369D9B2012900D000211C0A10
:1029100007E0012907D0936953F821305843491C37
:102920001AB1234602E00123F8E700238B42F0DCD2
:10293000002800DC002010BD0060004200600002A2
:1029400008B509A10968009148B101789DF80020F7
:10295000914204D104226946FDF78FFC08B10020A2
:1029600008BD012008BD0000038404842DE9F04166
:10297000066C816B04460025C163CEB1D9B101203C
:10298000626CB0470CE00220626CB047E06BFFF76E
:10299000A5FA07460320626CE16BB0476D1CE76344
:1029A000E16B0029EFD106E0FFF798FA6D1CE063B8
:1029B000E06B0028F8D12846BDE8F08103460020EE
:1029C000996B002908D0CB600A69401C8A4203D069
:1029D000002A01D01146F6E770472DE9F041846BDB
:1029E000002594B1012600272079C00707D0216A6D
:1029F000204611B18847304600E03846054420693A
:102A0000A04202D008B10446EEE72846BDE8F081B6
:102A100013B50C463CB10098030AC2B2214606A089
:102A2000FDF7AAFC05E00098020AC1B20DA0FDF76F
:102A3000A3FC00BFFEE700004149206572726F727F
:102A40002028257329202D20747970653D30782544
:102A500030327820636F64653D3078253032780DF0
:102A60000A0000004149206572726F72202D2074A7
:102A70007970653D30782530327820636F64653D2C
:102A80003078253032780D0A0000000010B570B1A2
:102A900069B162B1074C0460D1E90041C0E901416C
:102AA000D2E90012C0E903120123184610BD00202C
:102AB00010BD0000DECAFAA1016810B1024A8A43C3
:102AC00000D00020704700000001C0A130B44AB11E
:102AD00040B139B1074C1368A34206D130BC0C3267
:102AE000FFF7CEBB30BC0020704730BC1C32FFF774
:102AF0009FBB0000DECAFAA130B44AB140B139B17F
:102B0000064C1368A34206D130BC121DFFF7B8BBB8
:102B100030BC0020704730BCFFF78ABBDECAFAA188
:102B2000F8B50E46FFF7C8FF04000AD0002700974B
:102B3000208E00B1606B6946FFF7DAF9050006D018
:102B40000BE01022114600F047F90020F8BD1822D2
:102B50001121204600F040F9009706B13580009819
:102B6000F8BD00002DE9F04F89B00500DDE9121035
:102B70004FF0000A564663F30706CDE9011361F3EF
:102B80000F261D4F9146544660F31746834618D0D2
:102B9000C5F8009000F04AFAB8B1B846BF8AC6F34B
:102BA0000721F0B2002200F035FA0646C7F30721EC
:102BB000F8B2002200F02EFA864208D0D8F804407D
:102BC0000EE0F86909B0BDE8F08F3C6808E00BA0A2
:102BD000006800906846FFF7B3FE18B9D8F80840BF
:102BE000C5F800A0DDE901105A4600F013FAC9F853
:102BF00008002046E6E700003C3A0008038404840D
:102C000010B5FFF759FF20B1BDE810400C3000F0BF
:102C100007BA0148806910BD3C3A00082DE9F04F21
:102C200091B00C46FFF748FF050013D0B4B13DA1A9
:102C30002068FFF747FB06004FF0000B11D020681B
:102C40000190D4E90301CDE90401D4E90101CDE902
:102C5000020143E0002011B0BDE8F08F11221021E5
:102C60005CE001212046D4F804A0FFF735FE804641
:102C700004F11C00D4F8209001211090FFF72CFEE5
:102C800007461422294907A8FDF7D3FA0120B8F115
:102C9000000F02D0ADF8220002E0ADF822B000240F
:102CA00009941FB1ADF82A00109802E0ADF82AB0DF
:102CB00000200B90B9F1000F02D10FB1132206E0F2
:102CC000BAF1000F05D1B8F1000F02D01222102185
:102CD00023E0142207A901A8FDF7ABFA14492868DC
:102CE000884212D186F00102144602A905F12000A3
:102CF000FFF778FA68B1224604A905F12800FFF72A
:102D000071FA40B12846FFF759FE03202861284692
:102D1000A1E7122200E013221621284600F05CF8F9
:102D200098E70000696E697400000000903A00089E
:102D30000001C0A170B5FFF7BFFE002807D0017CDD
:102D4000890705D41022112100F046F8002070BD3B
:102D50000B4A0168914211D10546FFF73EFE286CEF
:102D600060B1AC6B54B1D5E91032214600209847D0
:102D70002069A04202D008B10446F4E7012070BDEA
:102D80000001C0A170B513460D46FFF795FE04463D
:102D90001A462946FFF7A0FA00281CD0208E08B159
:102DA000656B00E00025012802D9666B0C360DE04A
:102DB00000260BE02846FFF7B6FB2046FFF7D6FDBE
:102DC0003046FFF7E4FB608B401C6083608B218BF7
:102DD0008842EFD380B270BD002802D00C3000F0E2
:102DE00027B97047F8B50E46FFF766FE040007D016
:102DF00000270097208E012808D9606B0C3006E070
:102E000010221146FFF7E8FF0020F8BD00206946B8
:102E1000FFF76EF8050005D1182211212046FFF7B3
:102E2000DBFF009706B135800098F8BD38B50A4839
:102E300002680A4801680A48006800F0E1F80446A0
:102E4000012C07D00648006800F094F805A1009016
:102E5000FFF7DEFD002038BDE0060020DC06002084
:102E6000D806002061695F73696E5F636175636C8A
:102E7000617574655F72756E00000000024600683F
:102E8000010A012004E05368491E53F821305843D9
:102E90000029F8D1704700003EB504460D460020D9
:102EA00005210123044ACDE9001029462046FFF7F9
:102EB00059FE02903EBD000028060020F0B58FB0FC
:102EC00004460E46174600212046FFF7E5FF0E9008
:102ED0000E98C0B210B10E980FB0F0BD684600F069
:102EE00031F828B9206800F045F80E900E98F3E705
:102EF000002507E056F82520294603A8FFF7D0FC57
:102F0000681C85B21EB1BDF80E00A842F2DC002597
:102F100007E057F82520294601A8FFF7C1FC681CE7
:102F200085B21FB1BDF80600A842F2DC69462068F0
:102F300000F027F818B9206800F01CF80E900E98E1
:102F4000CAE700001FB5044614B9002004B010BD44
:102F5000074903C9CDE902010549083103C9CDE993
:102F6000000102AA69462046FFF790FDEEE7000047
:102F7000B038000838B504462046FFF741FE0090FF
:102F800038BD2DE9F04106460F4639463046FFF779
:102F900045FE0546012415B90020BDE8F0813946FB
:102FA000284600F0EFFA04403946284600F096FA29
:102FB00004403046FFF7BEFE04402046EDE7000027
:102FC00070B504460D4614B9034C044820602946E8
:102FD0002046FFF7A5FD70BD280600200001C0A116
:102FE00070B504460D4614B9034C044820602946C8
:102FF0002046FFF7F7FE70BD280600200001C0A1A3
:1030000070B504460D461646324629462046FFF75F
:10301000B9FE70BD000640EA014040EA0220704758
:103020000022016802700260084670470120704764
:10303000037813F0FF0F01D0002070470170016882
:1030400062F31F2101600120704700002DE9F04765
:10305000806988B0018809B1426800E000225268A6
:1030600032B109B1426800E000225268146800E001
:103070000024012902D942680C3200E00022526883
:103080004AB1012902D942680C3200E0002252689C
:10309000D2F8008001E04FF00008022902D942680E
:1030A000183200E00022526842B1022902D9426877
:1030B000183200E000225268176800E00027022959
:1030C0000BD9426812F1180F07D032F8183F012BC4
:1030D00003D9526812B1526800E00022E368D8F8C0
:1030E0000CC003295E68DCE90153DCF80CC003FB6B
:1030F0000CF3D7F818C0DCF8007027F07E4A02D92C
:103100004768243700E000277F685FB1032902D9B0
:103110004068243000E000204068006810B18069F9
:10312000876800E00027D8F81800A16980688968DE
:1031300012B19269946800E00024DCE9022CDFF807
:103140005080E1461AEB080C10D0BCF59C0F15D04E
:10315000BCF5DC0F07D10097CDE90353CDE901465B
:103160004B4600F063F808B0BDE8F0878DE85700E3
:10317000CDE90553684600F00DF8F4E70097CDE976
:103180000353CDE901464B4600F0A6F8EBE70000FB
:10319000C0EF7DFF2DE9F04F04462DED028B81B08D
:1031A000D0E9005AD4E90501484305EB800934E031
:1031B00060692E4605EB80089FED1B8AD4F810B09D
:1031C000A7680DE08DED008A5B4652463946684699
:1031D000FEF7E0FA9DED000A07EB8B07A6EC010A6B
:1031E0004645EFD3E06890B100200DE0E16801EBC7
:1031F000800191ED000A05EB8001401CD1ED000A31
:1032000030EE200A81ED000A61698142EED8216921
:1032100060690AEB810A05EB80054D45C8D301B012
:10322000BDEC028BBDE8F08F000000002DE9FF4FE0
:1032300004462DED028B83B08B46DDE91550DDE9A8
:10324000128A684304EB8006DDF850905FEA0800BC
:1032500005D040224146184600F00EFA33E0984669
:1032600031E000BF04EB85079FED1A8A07990DE056
:103270008DED018A5B46424601A8CDF80090FEF72D
:10328000A7FE9DED010A0146A4EC010ABC42EFD362
:103290000BEB890BBAF1000F15D0A4EB85010020D0
:1032A0000DE000BF01EB80020AEB800392ED000A03
:1032B000D3ED000A401C30EE200A82ED000AA8423D
:1032C000F0D301EB8504B442CCD303B0BDEC028B48
:1032D000BDE8FF8F000000002DE9FF4F04462DEDF3
:1032E000028B83B08B46DDE91550DDE9128A684315
:1032F00004EB8006DDF850905FEA080006D04FF43A
:1033000080624146184600F0B7F932E0984630E056
:1033100004EB85079FED1A8A07990DE08DED018A70
:103320005B46424601A8CDF80090FEF7E7FE9DED12
:10333000010A0146A4EC010ABC42EFD30BEB890B56
:10334000BAF1000F15D0A4EB850100200DE000BFFD
:1033500001EB80020AEB800392ED000AD3ED000A34
:10336000401C30EE200A82ED000AA842F0D301EBA7
:103370008504B442CCD303B0BDEC028BBDE8FF8F13
:103380000000000070B58069018809B1426800E062
:103390000022526832B109B1426800E0002252684E
:1033A000146800E00024012902D942680C3200E0D0
:1033B0000022526842B1012902D940680C3000E075
:1033C00000204068056800E0002504F10800FFF7D0
:1033D00055FD024621462846BDE87040002300F016
:1033E00021B800000146C0684A698969C068D2688E
:1033F00009685043044A1140A1F58022C03A01D126
:10340000C01DC00870470000FFFF7F01FDF706F9EF
:10341000FEF7A6F8FDF740FDFDF78AFD01E0FDF798
:103420009DFDFCE770B58E6980696FF00301B3689C
:1034300001EB820180685C18451807E094ED000AF2
:10344000FEF7FEFB85ED000A241F2D1FB068A04289
:10345000F4D970BD30B52DED068B85B004462568D6
:1034600011480068FCF716FF41EC180B95ED000AB7
:1034700010EE101A0846FCF70DFF41EC190B0B4833
:103480000068FCF707FF41EC1A0B8DED028B8DED08
:10349000009B53EC1A2B06A0FCF76EFF002005B032
:1034A000BDEC068B30BD0000E8060020E4060020DD
:1034B000696E7075742C20795F7072652C20795F4D
:1034C000747275653A20252E32662C20252E3266C0
:1034D0002C20252E32660D0A0000000070B505462E
:1034E0000C46224601212048FFF7F0FA002833D08D
:1034F0001D48006810301D4988601B480068103066
:10350000C860194800681430194988601648006876
:103510001430C86014480068143016498860124896
:1035200000681430C86010480068134988600E486D
:103530000068C8600C4800681430104988600A4868
:1035400000681430C860084800680D498860064863
:103550000068C860012070BD132230212846FFF7A3
:103560003BFC0020F7E700007C03002084030020E0
:1035700094030020A4030020B4030020C40300200F
:10358000D403002070B505460C462246012133487D
:10359000FFF7B2FA002859D03148006840F0804067
:1035A0002F4908602D48006888602C480068C86072
:1035B0002C48006840F080402A490860274800688D
:1035C00028308860254800682830C8602648006890
:1035D00040F08040244908602048006850308860EE
:1035E0001E4800685030C8602048006840F08040A5
:1035F0001E4908601948006800F58C7088601748FB
:10360000006800F58C70C8601948006840F0804080
:10361000174908601148006800F5967088600F48E7
:10362000006800F59670C8601248006840F080405D
:10363000104908600948006800F5A07088600748D4
:10364000006800F5A070C860012070BD1222302112
:103650002846FFF7C1FB0020F7E7000080030020A9
:10366000E4030020F40300200404002014040020DC
:103670002404002034040020F0B588420ED0002A33
:103680000CD08318814210D999420ED2114403E024
:1036900013F8012D01F8012D8342F9D8F0BD00BFC8
:1036A00010F8013B01F8013B521E8B0701D0002AA4
:1036B000F6D1170911E000BF50F8046B7F1E50F8D7
:1036C000045B50F8084B50F8043C41F8046B41F897
:1036D000045B41F8084B41F8043C002FECD1C2F3E5
:1036E000810304E050F8044B41F8044B5B1E002BAF
:1036F000F8D102F0030204E010F8013B01F8013BAD
:10370000521E002AF8D1F0BD0000000000000000A9
:103710000102030406070809000000000102030477
:1037200004000000A401002004000000E4010020C7
:1037300004000000280200200400000068020020AD
:1037400004000000AC0200204C3B0008283B0008AD
:10375000F43A0008103B00080000000000000000E0
:103760005C3B0008020200000000000000000000B6
:103770000000000000000000E70000000000000062
:103780000000000000000000000000000000000039
:103790000000000000000000000000000000000029
:1037A0000000000000000000000000000000000019
:1037B0000000000000000000000000000000000009
:1037C0000000000000000000498B2B3300000000C7
:1037D0004C3B0008283B0008F43A0008103B000866
:1037E00000000000000000005C3B00080202000036
:1037F00000000000000000000000000000000000C9
:10380000E7000000000000000000000000000000D1
:1038100000000000DECAFAA1000000000000000065
:103820000000000000000000000000000000000098
:103830000000000000000000000000000000000088
:103840000000000000000000000000000000000078
:10385000498B2B3300000000010000003C000000F9
:10386000010000000100000040040400000000000E
:1038700000000000000000003C0000000104000007
:1038800000000000010000004401000001000000F1
:10389000010000004004044000000000000000009F
:1038A00000000000440100000104000000000000CE
:1038B000000001009406002000000100B006002076
:1038C000FD6F593F6C3E073D6F39B6BC9C25B53C3A
:1038D000CA6D2C3DD3F766BFE9E884BD012F32BF26
:1038E000ECCA153E22EFA8BDCCC72D3F299BD2BF05
:1038F000F206454045924FC04B3D7BBEBC0B17BF07
:10390000DAA7923F1B0BFC3E17A43FBF79BE7E3E59
:10391000F16413BFC2A7A3BE38E4183F006ABDBE5E
:103920009094803EAA4918BEB11600BFEBACBEBE53
:103930006E53F13E9CEB82BE6AE4AD3D7EC72FBD67
:10394000B95E9ABEBD24E4BE9FC53B3EB5CEA9BEBE
:103950000E1CA93DA17AFA3E69B722BF586F383DC7
:1039600000CB94BE2723A53E7446943E8F6C393E0F
:1039700019F5D03E2196DC3EC40713BE7781AFBD5A
:1039800023DC2E3EC56EC2BDABB4493E796A9ABEF9
:10399000F5708ABE643FA03E3A01BFBDD2F80CBFAD
:1039A000E5C4CDBCD101843DEFB0EFBEBE5999BE98
:1039B0005290EF3C753C163F81C2B93F2B21C4BFEA
:1039C000B6CC8A3E85C6AB3D31785EBEEBCB92BEAF
:1039D00052136A3FA90E963DA8456ABD99C8B7BD66
:1039E000E109A9BDCF24E33D6911DA3EBBB4CD3E68
:1039F0007A72EB3EE14A1E3F97AB05BFF7150F3FCA
:103A0000C3FF4DBD00000000111000004D56312EC7
:103A10003030302E313000303132333435363738B3
:103A2000396162636465660030313233343536376C
:103A30003839414243444546000000003010000040
:103A400001100000021000000A0100000102000045
:103A5000010500001010000010100000010000001F
:103A60000000000001000000000000000100000054
:103A700001000000400404000000000000000000FD
:103A80000000000000000000010400000000000031
:103A9000DECAFAA1000000000000000000000000E3
:103AA000000000000000803F0030983F0000B53F5C
:103AB0000040D73F00000000320A7E397F661E3981
:103AC0005B991F390000803FF037983FF304B53F02
:103AD000FD44D73F000000006E83F9A22915444E33
:103AE000D15727FCC0DD34F5999562DB4190433C0A
:103AF000AB6351FE323032362D30352D31305431FA
:103B0000363A30393A32362B303830300000000047
:103B10004D617920313020323032362031363A3220
:103B2000393A3131000000003078363131393737D9
:103B300030643432346632653863396463363266F1
:103B400037336332656538613763000073696E5FD0
:103B5000636175636C6175746500000000000000AE
:103B6000803B0008000000200C0700001C03000838
:103B7000BC3D00080C0700205C0B0000C01E0008C4
:103B800041321042013B24F4085A0A1029045A0415
:103B9000045A28040942200A1105205A1404091E57
:103BA00020295CE92029585AC8046918E9406904A9
:103BB000091E20A95C6920697C69A0093EE0091AF8
:103BC00080135C051B2008041A240413EC04422013
:103BD00029288B90010C5A940C32025A980C415AA5
:103BE000A00C1AB43829488129349AD4409AD83480
:103BF0009ADC0C5AE00C1A403C29441AD0049A98DA
:103C0000848B14020C5A180C29845A1C0C415A2417
:103C10000C1A60382948A9849A58409A5C349A60F2
:103C20000C5A640C1A783C29441A7C049A44849AED
:103C300098449A9C849AA0449AA8241A4405290876
:103C40002904D4400404391C19131ADC3029205AE1
:103C50003C2809122C391C19131308032A209C81B3
:103C60001328071B200C041A38189A08182A541411
:103C700019041A501829501A34085A400C1A4C08C2
:103C80001A5804812D40108208189910110A1D0A33
:103C9000100A1C0510092F500A2C326011A96071FE
:103CA0002401010422101B20020819DD5B20F4E42A
:103CB000192C391C5A301C1A40085A941C5A021CE0
:103CC0005A501C1A60085AE41C5A031C5A701C1AD9
:103CD00080084B14041C190F391C5A901C1AA00898
:103CE0005AB43819AC391C5AB01C1AC0085A0438D6
:103CF0005A061C5AD01C1AE0085A341C5A071C5A7F
:103D0000F01C19B95B20D4546A08E0191439E01981
:103D1000085A24386A09E0591C1A40085AA4386A1B
:103D20000AE0591C1A60085AC41C6A0BE0591C1A94
:103D300080081A841C2A0415B113940514204D30F0
:103D400014082037FD080701031C1385331B0828BE
:103D50001C41D40401025AB03C3A303CD2015AD042
:103D60003C7A383CE15AEC3C2A402000081401C05F
:103D7000A1498B2B331DDECAFAA1CB112BEC02D843
:103D800012011A18C429861A64084B0C06ECC129C2
:103D9000675A3C0869041A4405690CD44004043984
:103DA0002C19131A744C291C4BC038B041393819DE
:0C3DB0001C9A84680B108007740124002A
:040000050800019955
:00000001FF
